:03000000020E8568
:0C0E8500787FE4F6D8FD75811E020ECCCB
:100A56007869616F206A6965000000000000000087
:100A6600000000006B61692066612062616E20797A
:100A7600616E207A68656E67646169206D612063C6
:100A86006520736869000000000000006B61692042
:100A960064656E67000000000000000000000000B2
:100AA6006775616E2064656E6700000000000000D7
:100AB60000000000626569206A696E670000000038
:100AC60000000000000000007368616E6720686126
:100AD6006900000000000000000000006775616EFC
:100AE60067207A686F7500000000000000000000B3
:080AF600000201040516172F90
:10100300D2B57F017E007D007C001210F4C2B57F53
:10101300017E007D007C001210F4D2B57F017E00BA
:101023007D007C001210F4C2A17F017E007D007C54
:10103300001210F4D2A17F017E007D007C0002101B
:01104300F4B8
:100AFE007F0612118D7D357F171211827F0A7E00BF
:100B0E007D007C001210F47F0612118D7D037F890B
:100B1E001211827F057E007D007C001210F47D4351
:100B2E007FCF1211827F057E007D007C001210F4B3
:100B3E007D027FCB1211827D0A7F11121182E4FD9C
:100B4E007F1E1211827D3F7F191211827D487F1BFD
:100B5E001211827D1F7F1D1211827F0A7E007D0081
:100B6E007C001210F47D047FCD1211827F057E0071
:100B7E007D007C001210F4E4FD7FB91211827D4FCE
:0C0B8E007FCF1211827DFF7F6F02118269
:100F1100120AFEE4FD7FBD1211827D487F17121176
:100F2100827F0A7E007D007C001210F47D807F3C70
:100F31001211827D077F3E1211827DFF7F381211CF
:100F4100827D077F3A121182E4FD7F401211827D7A
:100F5100087F42121182E4FD7F441211827D087FD5
:0F0F6100461211827F017E007D007C000210F499
:100C3600E4F518C2A87F2B12118D781CA607E4FDD7
:100C46007F29121182E4FD7F02121182781CE630A0
:100C5600E42D7FB212118DEF642170237FBF121134
:100C66008DBF351B7FBA12118D8F18E518D39400EE
:100C7600400DE518D394045006781D76108004784C
:100C86001D7611E4FD7F2B121182E4FD7F1C1211EB
:100C960082E4FD7F29121182E4FD7F02121182E4B3
:100CA600FD7F2B121182E4FD7FBA121182E4FD7FD3
:100CB600BC1211827D017F08121182E4FD7F0812A9
:040CC6001182D2A81D
:010CCA002207
:100F7000E4F509F50AF50912119E7F327E007D0025
:100F80007C001210F4120B9AEF700280117F0A7E1F
:100F9000007D007C001210F4120D5FEF7010121033
:100FA000037F327E007D007C001210F48005750AFC
:0E0FB0000180090509E509C3940540BBAF0A9D
:010FBE002210
:10107F00E4F50FF50E7FB212118DBF2105750F012B
:10108F0080147F0A7E007D007C001210F4050EE5AF
:08109F000EC3940A40DFAF0FFD
:0110A7002226
:03119E00020F112C
:100D5F00C2A87D557F351211827D097F1C12118229
:100D6F007D207FBD1211827D017F081211827F01CC
:100D7F007E007D007C001210F4E4FD7F08121182CA
:100D8F007F017E007D007C001210F412107FEF7047
:100D9F0002FF227D0B7F1C1211827DFF7FB2121189
:100DAF00827F017E007D007C001210F47D067F376C
:100DBF001211827F017E007D007C001210F47D06EF
:100DCF007F371211827F057E007D007C001210F4A8
:100DDF007D107F29121182E4FD7FBD121182D2A8EE
:030DEF007F01225F
:100B9A00750C01E4F50B12107FEF7005F50C020CD1
:100BAA0033E50B900AF693FD7FC1121182E4FD7FB3
:100BBA00C31211827D047F081211827F017E007D9B
:100BCA00007C001210F4E4FD7F081211827F017E7E
:100BDA00007D007C001210F4E4F50DE50B75F014AD
:100BEA00A42456F582E4340AF583E582250DF582BC
:100BFA00E43583F583E493FD600E7F0512118205C7
:100C0A000DE50DC3941440D3AD0D7FB91211827D49
:100C1A00FF7FB21211827D047F37121182050BE524
:0B0C2A000BC394085003020BA0AF0C9A
:010C3500229C
:061198007FC512118D223B
:10080000D2BBBCB6BFDAC1EEA3BAD0A1BDDC0D0A23
:1008100000B6FEBCB6BFDAC1EEA3BA31A1A2B4FAEB
:10082000C2EBB2E2CAD40D0A000932A1A2BFAAB734
:10083000A2B0E5D1E9D6A40D0A000933A1A2BFAA4E
:10084000B5C60D0A000934A1A2B9D8B5C60D0A0073
:10085000202035A1A2B1B1BEA90D0A000936A1A27E
:10086000C9CFBAA30D0A000937A1A2B9E3D6DD0D9D
:100870000A00A1B0B4FAC2EBB2E2CAD4A1B1C3FC7F
:10088000C1EECAB6B1F0B3C9B9A60D0A00A1B0BF96
:10089000AAB7A2B0E5D1E9D6A4A1B1C3FCC1EECA02
:1008A000B6B1F0B3C9B9A60D0A00A1B0BFAAB5C6CA
:1008B000A1B1C3FCC1EECAB6B1F0B3C9B9A60D0A65
:1008C00000A1B0B9D8B5C6A1B1C3FCC1EECAB6B1DA
:1008D000F0B3C9B9A60D0A00A1B0B1B1BEA9A1B1CA
:1008E000C3FCC1EECAB6B1F0B3C9B9A60D0A00A1E6
:1008F000B0C9CFBAA3A1B1C3FCC1EECAB6B1F0B3BF
:10090000C9B9A60D0A00A1B0B9E3D6DDA1B1C3FCF7
:10091000C1EECAB6B1F0B3C9B9A60D0A00C7EBD68D
:10092000D8D0C2CAB6B1F0B7A2BFDAC1EE0D0A0084
:10093000C7EBCBB5B3F6D2BBBCB6BFDAC1EE0D0A7E
:0109400000B6
:06117700011D00011B0038
:100DF200E4F5081211351211181210031210A8E4AA
:100E0200781DF67BFF7A0879001210CF7BFF7A08F3
:100E120079111210CF7BFF7A0879291210CF7BFF4C
:100E22007A08793A1210CF7BFF7A0879451210CFEF
:100E32007BFF7A0879501210CF7BFF7A08795C1217
:100E420010CF7BFF7A0879671210CF781DE6146005
:100E5200FA24F1601824DF60F224317020781D76C4
:100E620001120F70EF70E4781D763180DE12119856
:100E7200781EEFF6120CCBE4781DF680CEE4781DD6
:030E8200F680C82F
:10113500B2C212115FB2C212115FB2C212115FB216
:0C114500C212115FB2C212115FB2C222CE
:101118007580FFE4F59075A0FF75B0FF75C0FF7589
:0D11280092FFF591C2C3D289D2A8D2AF22A6
:0A116C0000007F057E49DEFEDFFC77
:011176002256
:0810F4008F138E128D118C1078
:1010FC00E4F514F515F516F517781074FF12096A56
:0B110C00EC4D4E4F600512116C80EEA0
:0111170022B5
:0C115F007F117ED07D1BDDFEDEFCDFFA80
:01116B002261
:03000300021044A4
:10104400C0E0C0F0C083C082C0D075D000C000C072
:1010540001C002C003C004C005C006C007120C369C
:10106400D007D006D005D004D003D002D001D000E0
:0B107400D0D0D082D083D0F0D0E0328A
:100CCB00EF7006751B01C2C222E51B6401707BF538
:100CDB001BD2C2EF24FE602224FE602A1460332450
:100CEB00EF603B14604424E8604C242E70547BFF6F
:100CFB007A0879721210CFD290227BFF7A08798D05
:100D0B001210CFD291227BFF7A0879AA1210CFD280
:100D1B0092227BFF7A0879C11210CFC292227BFFFD
:100D2B007A0879D81210CFD293227BFF7A0879EF09
:100D3B001210CFD294227BFF7A0979061210CFD2F0
:100D4B0095227BFF7A09791D80067BFF7A09793022
:040D5B001210CF2281
:0B118200908100EFF0908000EDF02263
:0B118D00908100EFF0908000E0FF2256
:04117D0002192580AE
:1010A800759850758920AE19AF1AAB07AA06E4F9EE
:1010B800F8FF7EE1FDFC120FBF12095A8F8B8F8D4E
:0710C800D28ED2ACD2AF22A0
:030023000211A126
:0111A100321B
:0E115100C2ACC2998F993099FDC299D2AC22DE
:1010CF008B098A0A890BAB09AA0AA90B120941607D
:1010DF0013050BE50B7002050A14F9120941FF12F3
:0510EF00115180E22216
:100E9100020DF2E493A3F8E493A34003F68001F278
:100EA10008DFF48029E493A3F85407240CC8C33362
:100EB100C4540F4420C8834004F456800146F6DF31
:100EC100E4800B0102040810204080901177E47E39
:100ED100019360BCA3FF543F30E509541FFEE49326
:100EE100A360010ECF54C025E060A840B8E493A3ED
:100EF100FAE493A3F8E493A3C8C582C8CAC583CA18
:100F0100F0A3C8C582C8CAC583CADFE9DEE780BECF
:01118100006D
:10094100BB010689828A83E0225002E722BBFE02B4
:09095100E32289828A83E49322E7
:100FBF00C2D5E830E70FB2D5E4C39BFBE49AFAE45D
:100FCF0099F9E498F8EC30E717B2D5120FF512093A
:100FDF00C4E4C39BFBE49AFAE499F9E498F880031C
:100FEF001209C430D50DE4C39FFFE49EFEE49DFDBE
:040FFF00E49CFC2250
:0E095A00C3E49FFFE49EFEE49DFDE49CFC22AE
:100968007401FF3395E0FEFDFC080808E6CF2FF67A
:1009780018E6CE3EF618E6CD3DF618E6CC3CF62253
:1009880075F008758200EF2FFFEE33FECD33CDCC26
:1009980033CCC58233C5829BED9AEC99E5829840A9
:1009A8000CF582EE9BFEED9AFDEC99FC0FD5F0D686
:1009B800E4CEFBE4CDFAE4CCF9A88222B800C1B9B0
:1009C8000059BA002DEC8BF084CFCECDFCE5F0CBEE
:1009D800F97818EF2FFFEE33FEED33FDEC33FCEB27
:1009E80033FB10D703994004EB99FB0FD8E5E4F9E2
:1009F800FA227818EF2FFFEE33FEED33FDEC33FCCF
:100A0800C933C910D7059BE99A4007EC9BFCE99AC2
:100A1800F90FD8E0E4C9FAE4CCFB2275F010EF2F07
:100A2800FFEE33FEED33FDCC33CCC833C810D70707
:100A38009BEC9AE899400AED9BFDEC9AFCE899F842
:0E0A48000FD5F0DAE4CDFBE4CCFAE4C8F922D5
:00000001FF
