:030000000206E510
:0C06E500787FE4F6D8FD75811E02072C1A
:10034A007869616F206A696500000000000000009A
:10035A000000000066616E20687569207A68752061
:10036A006A6965206D69616E77656E2073686920B8
:10037A006475206A69616E20636500006B6169209B
:10038A0064656E67000000000000000000000000C5
:10039A006775616E2064656E6700000000000000EA
:1003AA0000000000626F2066616E672079696E2026
:1003BA007975650000000000626F2066616E672033
:1003CA00646F6E67206875610000000062616F20CB
:1003DA0073686900000000000000000000000000CF
:0803EA00000102040516172FA3
:10086300D2B57F017E007D007C00120954C2B57FA2
:10087300017E007D007C00120954D2B57F017E0009
:100883007D007C00120954C2A17F017E007D007CA3
:1008930000120954D2A17F017E007D007C00020971
:0108A3005400
:1003F2007F061209D07D357F171209C57F0A7E005C
:100402007D007C001209547F061209D07D037F898A
:100412001209C57F057E007D007C001209547D43D0
:100422007FCF1209C57F057E007D007C0012095432
:100432007D027FCB1209C57D0A7F111209C5E4FD39
:100442007F1E1209C57D3F7F191209C57D487F1B9A
:100452001209C57D1F7F1D1209C57F0A7E007D001E
:100462007C001209547D047FCD1209C57F057E00F0
:100472007D007C00120954E4FD7FB91209C57D4F4D
:0C0482007FCF1209C57DFF7F6F0209C506
:100771001203F2E4FD7FBD1209C57D487F171209FE
:10078100C57F0A7E007D007C001209547D807F3C7C
:100791001209C57D077F3E1209C57DFF7F38120909
:1007A100C57D077F3A1209C5E4FD7F401209C57D69
:1007B100087F421209C5E4FD7F441209C57D087F07
:0F07C100461209C57F017E007D007C00020954AD
:10052A00E4F518C2A87F2B1209D0781CA607E4FDAF
:10053A007F291209C5E4FD7F021209C5781CE6303D
:10054A00E42D7FB21209D0EF642170237FBF120914
:10055A00D0BF351B7FBA1209D08F18E518D3940083
:10056A00400DE518D394045006781D76108004785F
:10057A001D7611E4FD7F2B1209C5E4FD7F1C1209CB
:10058A00C5E4FD7F291209C5E4FD7F021209C5E40D
:10059A00FD7F2B1209C5E4FD7FBA1209C5E4FD7F70
:1005AA00BC1209C57D017F081209C5E4FD7F081246
:0405BA0009C5D2A8F5
:0105BE00221A
:1007D000E4F509F50AF5091209E17F327E007D0092
:1007E0007C0012095412048EEF700280117F0A7E81
:1007F000007D007C001209541205BFEF7010120832
:10080000637F327E007D007C001209548005750AEA
:0E0810000180090509E509C3940540BBAF0A44
:01081E0022B7
:1008DF00E4F50FF50E7FB21209D0BF2105750F0198
:1008EF0080147F0A7E007D007C00120954050EE5FE
:0808FF000EC3940A40DFAF0FA5
:0109070022CD
:0309E10002077199
:1005BF00C2A87D557F351209C57D097F1C1209C55B
:1005CF007D207FBD1209C57D017F081209C57F01FE
:1005DF007E007D007C00120954E4FD7F081209C5DE
:1005EF007F017E007D007C001209541208DFEF703E
:1005FF0002FF227D0B7F1C1209C57DFF7FB21209FE
:10060F00C57F017E007D007C001209547D067F3777
:10061F001209C57F017E007D007C001209547D0602
:10062F007F371209C57F057E007D007C00120954BB
:10063F007D107F291209C5E4FD7FBD1209C5D2A81F
:03064F007F012206
:10048E00750C01E4F50B1208DFEF7005F50C020593
:10049E0027E50B9003EA93FD7FC11209C5E4FD7FAA
:1004AE00C31209C57D047F081209C57F017E007D38
:1004BE00007C00120954E4FD7F081209C57F017EFD
:1004CE00007D007C00120954E4F50DE50B75F01467
:1004DE00A4244AF582E43403F583E582250DF582E2
:1004EE00E43583F583E493FD600E7F051209C5059F
:1004FE000DE50DC3941440D3AD0D7FB91209C57D22
:10050E00FF7FB21209C57D047F371209C5050BE5C1
:0B051E000BC394085003020494AF0CC0
:0105290022AF
:0609DB007FC51209D022C5
:10002600D2BBBCB6BFDAC1EEA3BAD0A1BDDC0D0A05
:1000360000B6FEBCB6BFDAC1EEA3BA31A1A2B7B50F
:10004600BBD8D6F7BDE7C3E60D0A000932A1A2CE9A
:10005600C2CAAAB6C8BCECB2E20D0A000933A1A214
:10006600BFAAB5C60D0A000934A1A2B9D8B5C60DF6
:100076000A00202035A1A2B2A5B7C5D2F4C0D60D7C
:100086000A000936A1A2B2A5B7C5B6AFBBAD0D0A27
:10009600000937A1A2B1A8CAB10D0A00A1B0B7B52F
:1000A600BBD8D6F7BDE7C3E6A1B1C3FCC1EECAB65D
:1000B600B1F0B3C9B9A60D0A00A1B0CEC2CAAAB69C
:1000C600C8BCECB2E2A1B1C3FCC1EECAB6B1F0B392
:1000D600C9B9A60D0A00A1B0BFAAB5C6A1B1C3FC95
:1000E600C1EECAB6B1F0B3C9B9A60D0A00A1B0B93E
:1000F600D8B5C6A1B1C3FCC1EECAB6B1F0B3C9B991
:10010600A60D0A00A1B0B2A5B7C5D2F4C0D6A1B15A
:10011600C3FCC1EECAB6B1F0B3C9B9A60D0A00A1B7
:10012600B0B2A5B7C5B6AFBBADA1B1C3FCC1EECAEF
:10013600B6B1F0B3C9B9A60D0A00A1B0B1A8CAB14B
:10014600A1B1C3FCC1EECAB6B1F0B3C9B9A60D0AD6
:1001560000C7EBD6D8D0C2CAB6B1F0B7A2BFDAC1D3
:10016600EE0D0A00C7EBCBB5B3F6D2BBBCB6BFDA11
:05017600C1EE0D0A00BE
:0609BA00011D00011B00FD
:10065200E4F508120978120006120863120908E488
:10066200781DF67BFF7A00792612092F7BFF7A002C
:10067200793712092F7BFF7A00795112092F7BFFFC
:100682007A00796212092F7BFF7A00796D12092FA5
:100692007BFF7A00797812092F7BFF7A0079881222
:1006A200092F7BFF7A00799712092F781DE61460D3
:1006B200FA24F1601824DF60F224317020781D766C
:1006C200011207D0EF70E4781D763180DE1209DB6B
:1006D200781EEFF6120290E4781DF680CEE4781DC3
:0306E200F680C8D7
:10097800B2C21209A2B2C21209A2B2C21209A2B22A
:0C098800C21209A2B2C21209A2B2C2221D
:100006007580FFE4F59075A0FF75B0FF75C0FF75AC
:0D00160092FFF591C2C3D289D2A8D2AF22C9
:0A09AF0000007F057E49DEFEDFFC3C
:0109B900221B
:080954008F138E128D118C101F
:10095C00E4F514F515F516F517781074FF1201A4CB
:0B096C00EC4D4E4F60051209AF80EE0D
:01097700225D
:0C09A2007F117ED07D1BDDFEDEFCDFFA45
:0109AE002226
:030003000208A44C
:1008A400C0E0C0F0C083C082C0D075D000C000C01A
:1008B40001C002C003C004C005C006C00712052A57
:1008C400D007D006D005D004D003D002D001D00088
:0B08D400D0D0D082D083D0F0D0E03232
:10029000EF7006751B01C2C222E51B6401600302F8
:1002A0000340F51BD2C2EF24FE602724FE60341405
:1002B000604224EF604F14605D24E8606A242E7071
:1002C000777BFF7A0079A212092FD2901209A2C27D
:1002D00090227BFF7A0079BF12092FD2911209A2D6
:1002E000C291227BFF7A0079DC12092FD292120987
:1002F000A2C292227BFF7A0079F312092FD29312C5
:1003000009A2C293227BFF7A01790A12092FD294A3
:100310001209A2C294227BFF7A01792512092FD2F9
:10032000951209A2C295227BFF7A01794012092F0A
:10033000D2961209A2C296227BFF7A0179578006D3
:0A0340007BFF7A01796A12092F226F
:0B09C500908100EFF0908000EDF02228
:0B09D000908100EFF0908000E0FF221B
:0409C0000219258073
:10090800759850758920AE19AF1AAB07AA06E4F995
:10091800F8FF7EE1FDFC12081F1201948F8B8F8D6A
:07092800D28ED2ACD2AF2247
:030023000209E4EB
:0109E40032E0
:0E099400C2ACC2998F993099FDC299D2AC22A3
:10092F008B098A0A890BAB09AA0AA90B12017B60F2
:10093F0013050BE50B7002050A14F912017BFF1268
:05094F00099480E22282
:1006F100020652E493A3F8E493A34003F68001F2C7
:1007010008DFF48029E493A3F85407240CC8C33309
:10071100C4540F4420C8834004F456800146F6DFD8
:10072100E4800B01020408102040809009BAE47EA5
:10073100019360BCA3FF543F30E509541FFEE493CD
:10074100A360010ECF54C025E060A840B8E493A394
:10075100FAE493A3F8E493A3C8C582C8CAC583CABF
:10076100F0A3C8C582C8CAC583CADFE9DEE780BE77
:0109C4000032
:10017B00BB010689828A83E0225002E722BBFE0282
:09018B00E32289828A83E49322B5
:10081F00C2D5E830E70FB2D5E4C39BFBE49AFAE404
:10082F0099F9E498F8EC30E717B2D5120855120190
:10083F00FEE4C39BFBE49AFAE499F9E498F8800389
:10084F001201FE30D50DE4C39FFFE49EFEE49DFD33
:04085F00E49CFC22F7
:0E019400C3E49FFFE49EFEE49DFDE49CFC227C
:1001A2007401FF3395E0FEFDFC080808E6CF2FF648
:1001B20018E6CE3EF618E6CD3DF618E6CC3CF62221
:1001C20075F008758200EF2FFFEE33FECD33CDCCF4
:1001D20033CCC58233C5829BED9AEC99E582984077
:1001E2000CF582EE9BFEED9AFDEC99FC0FD5F0D654
:1001F200E4CEFBE4CDFAE4CCF9A88222B800C1B97E
:100202000059BA002DEC8BF084CFCECDFCE5F0CBBB
:10021200F97818EF2FFFEE33FEED33FDEC33FCEBF4
:1002220033FB10D703994004EB99FB0FD8E5E4F9AF
:10023200FA227818EF2FFFEE33FEED33FDEC33FC9C
:10024200C933C910D7059BE99A4007EC9BFCE99A90
:10025200F90FD8E0E4C9FAE4CCFB2275F010EF2FD5
:10026200FFEE33FEED33FDCC33CCC833C810D707D5
:100272009BEC9AE899400AED9BFDEC9AFCE899F810
:0E0282000FD5F0DAE4CDFBE4CCFAE4C8F922A3
:00000001FF
